:100000000C9434000C9449000C9449000C94490061
:100010000C9449000C9449000C9449000C9449003C
:100020000C9449000C9449000C9449000C9449002C
:100030000C9449000C9449000C9449000C9449001C
:100040000C9449000C9449000C9449000C9449000C
:100050000C9449000C9449000C9449000C944900FC
:100060000C9449000C94490011241FBECFEFD8E036
:10007000DEBFCDBF11E0A0E0B1E0E2E0FFE002C0F2
:1000800005900D92A234B107D9F70E9489020C9411
:100090007F070C9400006F927F928F929F92AF9295
:1000A000BF92CF92DF92EF92FF920F931F93CF9365
:1000B000DF9300D000D01F92CDB7DEB7682EF901D4
:1000C0009FB721E0281708F4C4C0DA018C91102FE3
:1000D000109581238C93DB018C9181238C93DA0121
:1000E0008C91802B8C93621207C0AFECB7E0119714
:1000F000F1F700C0000009C0BFEF20EE30E0B150C2
:1001000020403040E1F700C00000F894DA018C9103
:1001100081238C93A7E1B1E01197F1F700C00000B3
:100120008081802319F09FBF81E098C0AFE3B1E0E8
:100130001197F1F700C000002081202319F49FBF20
:1001400081E08CC09FBFB5EDBA95F1F700009E012C
:100150002F5F3F4F5E0196E0A90EB11C7FB6F89469
:10016000DA019C9191239C93DB019C9191239C93B8
:100170006894992497F8812C25C0B15019F47FBE5A
:100180006CC0BDE395E09A95F1F700009081902353
:10019000A1F3A0EAAA95F1F79081902309F08928AC
:1001A0009081902329F40CC0B15019F47FBE55C042
:1001B000BDE395E09A95F1F7000090819023A1F7B7
:1001C000969421F090819023E1F2E3CFD9018D92B2
:1001D0009D017FBEAA15BB0509F0C0CF49816A8188
:1001E000942F960F2B81920F3C81930F5D81951375
:1001F00032C0B1E06B120EC070E0FB01F42BD601EF
:10020000ED93FC93432F50E0FA01F22BD701ED93CD
:10021000FC9324C050E0BA01660F771F440F551FAE
:10022000440F551F440F551F460F571FF6015183AA
:10023000408330E0A901440F551F220F331F220FC6
:10024000331F220F331F240F351FD7012D933C93EB
:1002500005C083E003C082E001C081E00F900F90F1
:100260000F900F900F90DF91CF911F910F91FF9002
:10027000EF90DF90CF90BF90AF909F908F907F9046
:100280006F9008950F939FB78230A0F5DA01FC912B
:10029000E02FE095FE23FC93DB01FC91FE23FC9311
:1002A000DA016C91602B6C93813039F4AFECB7E0DC
:1002B0001197F1F700C0000009C0BFEFF0EE60E059
:1002C000B150F0406040E1F700C00000F894DA015E
:1002D0008C91E823EC93E7E1F1E03197F1F700C06E
:1002E0000000D9018C91802319F09FBF81E003C0E9
:1002F0009FBF01C083E00F9108951092B90086E47A
:100300008093B80084E08093BC00089584EA8093D1
:10031000BC00ECEBF0E080818823ECF7089584E9E1
:100320008093BC008FE891E00197F1F700C00000D6
:1003300008958093BB0084E88093BC00ECEBF0E070
:1003400080818823ECF7089520E4829FC001112466
:1003500084688093BC00ECEBF0E080818823ECF7AC
:100360008091BB000895419A85E08A95F1F70000DD
:1003700041980895CF93DF93D82F662311F0439AC5
:1003800001C0439842988AB18F608AB9CBB1C07FCF
:100390008D2F82958F708C2B8BB90E94B301DF70EB
:1003A000DC2BDBB90E94B301CF60CBB9DF91CF91D9
:1003B0000895882311F0439A01C04398429A8AB164
:1003C000807F8AB9419A85E08A95F1F7000099B15A
:1003D000419885E08A95F1F70000419A85E08A9579
:1003E000F1F7000029B12F70892F8295807F419805
:1003F000822B089580E00E94D9018823DCF385E1F7
:100400008A95F1F7000080E00E94D9010895CF930A
:10041000C82F0E94FA0160E08C2F0E94BA01CF9190
:100420000895611104C080580E9407020895805405
:100430000E940702089581E00E940702089582E069
:100440000E9407020895CF93C82F0E94FA01CA3074
:1004500049F4803410F080E001C080E480580E94AC
:10046000070204C061E08C2F0E94BA01CF91089569
:10047000CF93DF93EC012196FC018081882329F042
:100480000E94230289918111FBCFDF91CF910895C2
:10049000CF93C82F8AB18F608AB93B9A3A9A399A1A
:1004A0008FEF99EF0197F1F700C00000599A589A21
:1004B0000E94B3018FE19EE40197F1F700C00000B4
:1004C0000E94B3018FEF90E00197F1F700C00000A8
:1004D0000E94B3018FEF90E00197F1F700C0000098
:1004E00058980E94B3018FEF90E00197F1F700C098
:1004F000000088E20E94070288E00E9407020E9432
:100500001B0286E00E9407028C2F0E940702CF91F7
:100510000895CF93DF93CDB7DEB7C655D1090FB697
:10052000F894DEBF0FBECDBF549A5C9A8EE00E9455
:1005300048020E941B020E941F0280E091E00E947C
:10054000380261E080E00E9411028CE091E00E949C
:1005500038028CE00E9407022FEF8BE792E92150CE
:1005600080409040E1F700C000000E94050480E256
:100570008B8382E28A83198285E18D8385E08E8375
:1005800088E18F8382E08C83CE0101960E9415045E
:10059000CE018A5B9F4F2F969FAF8EAF2F973E0164
:1005A00093E4690E711C4E0120E4820E911C5E01E1
:1005B0008DE3A80EB11C2E019AE3490E511C1E01B9
:1005C0002DE2220E311CCE01C69661969FAF8EAFF2
:1005D0006197049763969FAF8EAF63978A976596EE
:1005E0009FAF8EAF6597449667969FAF8EAF679724
:1005F0002D961FAE1EAE2D972B961FAE1EAE2B97BF
:10060000CE0101960E943A0400E229E230E04AE27B
:1006100050E06BE270E081E00E9442019FEF23ED29
:1006200080E3915020408040E1F700C00000CE01FF
:10063000875B9F4F6C0102967C0129E230E04AE221
:1006400050E06BE270E081E00E944B002D968EAD91
:100650009FAD2D972AE030E0B9010E946D042D96E0
:100660007FAF6EAF2D972B968EAD9FAD2B97B901B7
:100670000E946D042B967FAF6EAF2B9789811F92DE
:100680008F930BE111E01F930F932F969FAD2F9740
:100690009F932E962FAD2E972F930E9495048A81BB
:1006A0001F928F931F930F937F926F920E949504D6
:1006B0008B811F928F931F930F939F928F920E9413
:1006C00095048D811F928F931F930F93BF92AF92CA
:1006D0000E9495048E811F928F931F930F935F92B8
:1006E0004F920E9495048F811F928F9389E191E030
:1006F0009F938F933F922F920E9495040FB6F89488
:10070000DEBF0FBECDBF2D968FAD2D978F932C964C
:100710008FAD2C978F9300E211E01F930F9361969A
:100720009FAD61979F9360962FAD60972F930E9426
:1007300095042B968FAD2B978F932A968FAD2A9782
:100740008F931F930F9363968FAD63978F936296EA
:100750009FAD62979F930E94950463962FAD639718
:100760002F9362968FAD62978F9361969FAD61973D
:100770009F9360962FAD60972F9383E291E09F93B4
:100780008F9365968FAD65978F9364969FAD6497B1
:100790009F930E9495047F926F929F928F923F92B7
:1007A0002F925F924F92BF92AF9283E391E09F931B
:1007B0008F9367962FAD67972F9366968FAD669749
:1007C0008F930E9495040FB6F894DEBF0FBECDBF85
:1007D0000E941B020E941F02CE014C960E9438020A
:1007E00061E080E00E941102CE0108960E9438026A
:1007F0008CE00E9407029FEF23ED80E391502040A0
:100800008040E1F700C00000F3CE0E947D010E940D
:10081000860180ED0E94990187E00E94990180E0A5
:100820000E9499010E948F010895CF93DF93EC01FC
:100830000E94860180ED0E94990180E00E9499014A
:1008400088810E94990189810E9499018A810E9470
:1008500099018B810E9499018C810E9499018D815F
:100860000E9499018E810E9499010E948F01DF915F
:10087000CF910895CF93DF93EC010E94860180ED24
:100880000E94990180E00E9499010E948F010E94BC
:10089000860181ED0E94990181E00E94A401888374
:1008A00081E00E94A401898381E00E94A4018A83DF
:1008B00081E00E94A4018B8381E00E94A4018C83CB
:1008C00081E00E94A4018D8380E00E94A4018E83B8
:1008D0000E948F01DF91CF91089597FB072E16F4A8
:1008E000009407D077FD09D00E94810407FC05D051
:1008F0003EF4909581959F4F0895709561957F4F37
:100900000895AA1BBB1B51E107C0AA1FBB1FA61756
:10091000B70710F0A61BB70B881F991F5A95A9F7A8
:1009200080959095BC01CD010895AEE0B0E0EBE973
:10093000F4E00C9456070D891E8986E08C831A8397
:1009400009838FEF9FE79E838D83AE01475E5F4FE4
:100950006F89788DCE0101960E94B704EF81F885EA
:10096000E00FF11F10822E96E4E00C947207ABE0CA
:10097000B0E0EDEBF4E00C9448076C017B018A01D8
:10098000FC0117821682838181FFCCC1CE010196C2
:100990003C01F6019381F70193FD859193FF8191CD
:1009A0007F01882309F4BAC1853239F493FD85911A
:1009B00093FF81917F01853229F4B60190E00E9476
:1009C000AE06E7CF912C212C312CFFE1F315D8F0A6
:1009D0008B3279F038F4803279F08332A1F4232D10
:1009E00020611DC08D3261F0803369F4232D2160B8
:1009F00016C0832D8260382EE32DE4603E2E2AC07F
:100A0000F32DF8601DC037FC2DC020ED280F2A30D3
:100A100040F08E32B9F436FC81C1232D2064322E91
:100A200019C036FE06C08AE0989E200D1124922E31
:100A300011C0EAE02E9E200D1124222EF32DF0622B
:100A40003F2E08C08C3621F4832D8068382E02C0DA
:100A5000883641F4F70193FD859193FF81917F01E1
:100A60008111B3CF982F9F7D9554933028F40C5F5C
:100A70001F4F9FE399830DC0833631F0833771F0A8
:100A8000833509F059C021C0F801808189830E5F48
:100A90001F4F88248394912C530113C02801F2E046
:100AA0004F0E511CF801A080B18036FE03C0692DA5
:100AB00070E002C06FEF7FEFC5010E94A3064C01FA
:100AC0008201F32DFF773F2E16C0280122E0420E4F
:100AD000511CF801A080B18036FE03C0692D70E082
:100AE00002C06FEF7FEFC5010E9498064C01F32D05
:100AF000F0683F2E820133FC1BC0822D90E08816E7
:100B00009906B0F4B60180E290E00E94AE062A9405
:100B1000F4CFF50137FC859137FE81915F01B60175
:100B200090E00E94AE0621102A9421E0821A9108DA
:100B30008114910471F7E8C0843611F0893641F5CB
:100B4000F80137FE07C060817181828193810C5F5B
:100B50001F4F08C060817181072E000C880B990B14
:100B60000E5F1F4FF32DFF763F2E97FF09C0909524
:100B70008095709561957F4F8F4F9F4FF0683F2E06
:100B80002AE030E0A3010E94EA06882E861845C0BC
:100B9000853731F4232D2F7EB22E2AE030E025C098
:100BA000932D997FB92E8F36C1F018F4883579F0DE
:100BB000B5C0803719F0883721F0B0C0E92FE06167
:100BC000BE2EB4FE0DC0FB2DF460BF2E09C034FE56
:100BD0000AC0292F2660B22E06C028E030E005C0EA
:100BE00020E130E002C020E132E0F801B7FE07C0AA
:100BF00060817181828193810C5F1F4F06C060818B
:100C0000718180E090E00E5F1F4FA3010E94EA0611
:100C1000882E8618FB2DFF773F2E36FE0DC0232D24
:100C20002E7FA22E891458F434FE0BC032FC09C06A
:100C3000832D8E7EA82E05C0B82CA32C03C0B82C03
:100C400001C0B92CA4FE0FC0FE01E80DF11D80818A
:100C5000803321F49A2D997EA92E09C0A2FE06C0E8
:100C6000B394B39404C08A2D867809F0B394A3FC9E
:100C700011C0A0FE06C0B21488F4280C922C9B1858
:100C80000EC0B21460F4B60180E290E00E94AE069D
:100C9000B394F7CFB21418F42B1802C0982C212C5F
:100CA000A4FE10C0B60180E390E00E94AE06A2FE52
:100CB00017C0A1FC03C088E790E002C088E590E07F
:100CC000B6010CC08A2D867859F0A1FE02C08BE2D5
:100CD00001C080E2A7FC8DE2B60190E00E94AE0662
:100CE000891438F4B60180E390E00E94AE069A942D
:100CF000F7CF8A94F301E80DF11D8081B60190E0F1
:100D00000E94AE068110F5CF222009F442CEB60132
:100D100080E290E00E94AE062A94F6CFF60186812A
:100D2000978102C08FEF9FEF2B96E2E10C9464074E
:100D3000FC010590615070400110D8F780959095A6
:100D40008E0F9F1F0895FC016150704001900110AB
:100D5000D8F7809590958E0F9F1F08950F931F933E
:100D6000CF93DF93FB01238121FD03C08FEF9FEF22
:100D70002CC022FF16C0468157812481358142173D
:100D8000530744F4A081B1819D012F5F3F4F318310
:100D900020838C93268137812F5F3F4F37832683B3
:100DA00014C08B01EC01FB010084F185E02D099555
:100DB000892BE1F6D80116968D919C911797019693
:100DC00017969C938E931697CE01DF91CF911F912A
:100DD0000F910895FA01AA27283051F1203181F1AD
:100DE000E8946F936E7F6E5F7F4F8F4F9F4FAF4F33
:100DF000B1E03ED0B4E03CD0670F781F891F9A1F46
:100E0000A11D680F791F8A1F911DA11D6A0F711DF9
:100E1000811D911DA11D20D009F468943F912AE005
:100E2000269F11243019305D3193DEF6CF010895ED
:100E3000462F4770405D4193B3E00FD0C9F7F6CF1E
:100E4000462F4F70405D4A3318F0495D31FD4052E6
:100E5000419302D0A9F7EACFB4E0A695979587957C
:100E600077956795BA95C9F700976105710508955B
:100E70009B01AC010A2E0694579547953795279507
:100E8000BA95C9F7620F731F841F951FA01D08959F
:100E90002F923F924F925F926F927F928F929F928A
:100EA000AF92BF92CF92DF92EF92FF920F931F9378
:100EB000CF93DF93CDB7DEB7CA1BDB0B0FB6F89429
:100EC000DEBF0FBECDBF09942A88398848885F8469
:100ED0006E847D848C849B84AA84B984C884DF80DA
:100EE000EE80FD800C811B81AA81B981CE0FD11DBE
:100EF0000FB6F894DEBF0FBECDBFED010895F89494
:020F0000FFCF21
:100F02002020202057656C636F6D650020204C61A6
:100F1200746D6F73204C7464003230253032780067
:100F22002564002020543D2573432020483D25732D
:100F320025250025732F25732F25732025733A2528
:020F420073003A
:00000001FF
